:020000040000FA
:100000000A128A11ED2FFF0000308A007F08820754
:1000100008280A128A110F2F0A128A11412F0A1278
:100020008A11CA2E0A128A117C2E0A128A11B02E47
:100030000A128A11962E00308A000408840A820768
:10004000003431343234333441343434353436349A
:10005000423437343834393443342A343034233456
:100060004434413470346F346E3474346134203429
:1000700070342F3420346534733474346434203451
:1000800030340034413470346F346E34743461343D
:10009000203470342F342034653473347434643431
:1000A000203431340034413470346F346E3474345D
:1000B0006134203470342F34203465347334743414
:1000C0006434203432340034413470346F346E344C
:1000D00074346134203470342F34203465347334F4
:0A00E00074346434203433340034E7
:100C26000134043400340034003400340034F0302D
:100C3600831603138600831603178901831603138D
:100C46008113FF309500FF308312031386000800DE
:100C5600F5007508F40006300310F40DFF3E031D81
:100C66002F2E730874077F39803E0A128A1179275E
:100C76000A128A1108007E088A007F0882000A127A
:100C86008A113E260A128A118000840A04087D060B
:100C960003190034FF0A0319FE0A422E5F2EC730DD
:100CA600F200552EF20B542E582E592EFF30F00717
:100CB6000318F10AFF30F10770087104031D642E52
:100CC600652E522E08008312031320080A128A1179
:100CD60003200A128A110730F9007908FA007A0807
:100CE6000A128A1103200A128A11722E0A128A1116
:100CF60000281130F8007808F60083120313210843
:100D06000A128A1103200A128A11F430F000013007
:100D1600F1000A128A1151260A128A110730F800C8
:100D26007808FA0008003330F8007808F6008312D5
:100D3600031321080A128A1103200A128A11F430B9
:100D4600F0000130F1000A128A1151260A128A11A6
:100D56000D30F8007808FA0008004430F8007808EA
:100D6600F6008312031321080A128A1103200A12BD
:100D76008A11F430F0000130F1000A128A1151266E
:100D86000A128A110A30F8007808FA0008002230A0
:100D9600F8007808F6008312031321080A128A1154
:100DA60003200A128A11F430F0000130F1000A1211
:100DB6008A1151260A128A111030F8007808FA00B2
:100DC6000800F1008312031308167108F0000430BE
:100DD6000310F00CFF3E031DEB2E08087006F039D9
:100DE6007006880088120D30F000F00BF82E831282
:100DF6000313881608160F307105F00008087006F0
:100E0600F0397006880088120D30F000F00B092FBB
:100E1600831203138816080083160313081088101C
:100E260008118811081288120817881783160317E5
:100E3600890183160313860183120313860188161C
:100E460028300A128A1179270A128A110C300A12DE
:100E56008A1179270A128A1101300A128A11792712
:100E66000A128A1102300A128A1179270A128A1185
:100E76000A128A111A260A128A110800F301003092
:100E86000A128A112B260A128A116C2F7608840000
:100E96000A128A111B200A128A110A3A031D542FBC
:100EA600552F5C2FF30101300A128A112B260A12E4
:100EB6008A11760884000A128A111B200A128A11E6
:100EC6000A128A11E4260A128A110130F7007708FD
:100ED600F607760884000A128A111B200A128A1164
:100EE600003A031D772F782F492F0800F20083124E
:100EF600031308127208F00004300310F00CFF3ED2
:100F0600031D802F08087006F039700688008812C5
:100F1600720303198F2F902F962F02307206031D2E
:100F2600952F962FA02F0330F1009730F000F00B8D
:100F36009A2FF10B9A2F9F2FA42F0D30F000F00B54
:100F4600A22F831203138816F0307205F0002030AA
:100F56007006031DAF2FB02FC62F08127208F000BF
:100F660004300310F00CFF3E031DB42F0808700672
:100F7600F0397006880088120D30F000F00BC12F92
:100F860083120313881608120F307205F000080842
:100F96007006F03970068800881272030319D42F80
:100FA600D52FDB2F02307206031DDA2FDB2FE52F3C
:100FB6000330F1009730F000F00BDF2FF10BDF2F3D
:100FC600E42FE92F0D30F000F00BE72F8312031307
:100FD6008816080083132730FD000630FE00133004
:100FE600FF00203084000A128A1142260A128A1152
:0A0FF600FA0183010A128A11662E27
:04400E00D420FF3F7C
:00000001FF
